:100000000C9435030C947C030C947C030C947C03BB
:100010000C947C030C947C030C947C030C947C0364
:100020000C947C030C947C030C9499220C946D2307
:100030000C941C1A0C947C030C947C030C947C038D
:100040000C947C030C947C030C947C030C947C0334
:100050000C947C030C94731A0C947C030C947C0316
:100060000C947C030C947C030C947C030C947C0314
:100070000C947C030C947C030C947C030C947C0304
:100080000C947C030C947C030C947C030C947C03F4
:100090000C947C030C947C030C947C030C947C03E4
:1000A0000C947C030C947C030C947C033500290095
:1000B0003A003B003C003D003E003F0040001E0077
:1000C0001F0020002100220023002400250026001C
:1000D0002B0014001A000800150017001C0018005F
:1000E0000C00390004001600070009000A000B008C
:1000F0000D000E000000E1001D001B0006001900AD
:10010000050011001000E0000000E2000000000007
:1001100000002C00000000004100420043004400A9
:100120004500460047004800000027002D002E0033
:1001300000002A0049004A004B0000001200130092
:100140002F00300031004C004D004E0000000F0029
:100150003300340000002800000000000000000010
:10016000360037003800E5000000000052000000B3
:10017000000000000000E6000000E4004F00510015
:100180005000000001000100010001000100010019
:100190000100010001000100010001000100010057
:1001A0000100010001000100010001000100010047
:1001B0000100010001000100010001000100010037
:1001C0000100010001000100010001000000010028
:1001D0000100010001000100010001000100010017
:1001E000000001000000000000000100000000000D
:1001F00001000100010001000100010001000100F7
:1002000000000100010001000000010001000100E8
:1002100001000000010001000100010001000100D7
:1002200001000100000001000100010000000100C8
:1002300000000000000000000100010001000100BA
:1002400000000000010000000000000000000100AC
:100250000000010001000100010000000100010098
:100260000100010001000100010001000100010086
:100270000100010001000100010001000100010076
:100280000100010001000100010001000100010066
:100290000100010001000100010001000100010056
:1002A0000100010000000100010001000100010047
:1002B0000100010001000100000001000000000039
:1002C0000000010000000000010001000100010029
:1002D0000100010001000100000001000100010017
:1002E0000000010001000100010000000100010008
:1002F00001000100010001000100010000000100F7
:1003000001000100000001000000000000000000EA
:1003100001000100010001000000000001000000D8
:1003200000000000000001000000010001000100C9
:1003300001000000010001000100010001000100B6
:1003400001000100010001000100010001000100A5
:100350000100010001000100010001000100010095
:100360000100010001000100010001000100010085
:100370000100010001000100010001000000010076
:100380000100010001000100010001000100010065
:10039000000001000000000000000100000000005B
:1003A0000100010001000100010001000100010045
:1003B0000000010001000100000001000100010037
:1003C0000100000001000100010001000100010026
:1003D0000100010000000100010001000000010017
:1003E0000000000000000000010001000100010009
:1003F00000000000010000000000000000000100FB
:1004000000000100010001000100000000000000E8
:10041000000000002A2B280000000000000000005F
:100420000000000000000029000000002C1E342005
:10043000212224342627252E362D3738271E1F202B
:100440002122232425263333362E37381F04050670
:100450000708090A0B0C0D0E0F10111213141516B4
:100460001718191A1B1C1D2F3130232D35040506B2
:100470000708090A0B0C0D0E0F1011121314151694
:100480001718191A1B1C1D2F3130354C00000000A5
:10049000000000000000000000000000000000005C
:1004A0007E0F00D4FFFFFFC7000000780403300078
:1004B0000000160343007200650061006D007900C2
:1004C000200054004B004C0000000E03430072005B
:1004D000650061006D007900000004030904090251
:1004E0005B00030100A0FA09040000010301010000
:1004F0000921110100012240000705810308000ABB
:100500000904010002030000000921110100012279
:1005100022000705820320000107050303200001D4
:100520000904020001030000000921110100012259
:10053000BC000705840320000A120110010000001E
:1005400008434E01000100010203010660FF09613A
:10055000A1010962150026FF009520750881020996
:1005600063150026FF00952075089102C00501095A
:1005700002A10185020901A100050919012905153A
:10058000002501950575018102950175038101051D
:1005900001093009311581257F9502750881060909
:1005A000381581257F950175088106050C0A3802EA
:1005B0001581257F950175088106C0C00501098058
:1005C000A101850319012AB700150126B70095017D
:1005D00075108100C0050C0901A101850419012ACB
:1005E000A002150126A002950175108100C0050129
:1005F0000906A1018505050719E029E71500250170
:100600009508750181020507190029EF15002501DC
:1006100095F07501810205081901290595057501F7
:100620009102950175039101C005010906A101051B
:100630000719E029E7150025019508750181029544
:1006400001750881010507190029FF150026FF0023
:10065000950675088100050819012905950575019C
:100660009102950175039101C00011241FBECFEFC7
:10067000DAE0DEBFCDBF04B603FE27C08091E402FE
:100680009091E502A091E602B091E7028730904B8D
:10069000A740B04BD1F41092E4021092E502109200
:1006A000E6021092E70214BE84B7877F84BF0FB6BC
:1006B000F894A89580916000886180936000109202
:1006C00060000FBEE0E0F8E3099511E0A0E0B1E0C2
:1006D000E6EAFBE402C005900D92AC39B107D9F708
:1006E00022E0ACE9B1E001C01D92A43EB207E1F7FF
:1006F0000E944F1F0C9496250C94000008950895B5
:1007000081E0089581E008950C94820308950C948B
:1007100086031F93CF93DF9300D000D00F92CDB705
:10072000DEB749835A836B833091C20189819A81F4
:1007300031111DC06623B9F02223A9F00E941D17B4
:10074000182F682F89819A810E94C91669817A8140
:10075000812F0F900F900F900F900F90DF91CF91FE
:100760001F910C94900A0E94F516182FEFCF0E944B
:100770001D1769817A81EDCFFC01262F40815181BF
:100780006281738184810C948903CF93DF93EC01A0
:1007900060E00E94BC03BE01DF91CF910C948703FF
:1007A000FF920F931F93CF93DF93E82FF0E0E45F66
:1007B000FB4FF490C82FC695C695C695D0E0FE01B4
:1007C000E456FB4F0491877010E0082E02C0159587
:1007D00007950A94E2F701701127C457DB4FFE0119
:1007E000C491D0E002C0D595C7958A95E2F7C17053
:1007F000DD270115110519F081EE0E94BC0E20972E
:1008000019F086EE0E94BC0E8F2D0E94A40FCD2BF6
:1008100019F086EE0E944E0F012B41F081EEDF9120
:10082000CF911F910F91FF900C944E0FDF91CF91BC
:100830001F910F91FF900895EF92FF920F931F93D6
:10084000CF93DF93EC01162F0AE08881882309F407
:1008500054C0813009F04EC08981813099F47E0105
:1008600022E0E20EF11C8A810E94A40FE70121968A
:10087000812F815050F3EFE9FFE03197F1F700C08D
:100880000000F7CF823041F47E0182E0E80EF11CD7
:100890008A810E94BC0EEACF833041F47E01E2E0FF
:1008A000EE0EF11C8A810E944E0FE0CF843011F0D1
:1008B0002196DDCF2A81229690E080E0AE014F5F45
:1008C0005F4F2053330B2A30310548F0019778F2FF
:1008D000EFE9FFE03197F1F700C00000F7CF089F84
:1008E000B001099F700D1124C901860F971F29813E
:1008F000EA01E4CF0E94D003BACFDF91CF911F91DC
:100900000F91FF90EF90089560E00C941C048F927B
:100910009F92AF92BF92CF92DF92EF92FF920F938E
:100920001F936B017C0181E090E0A0E0B0E04C01FE
:100930005D0104C0880C991CAA1CBB1C4A95D2F707
:10094000B501A4014C015D0104C0880C991CAA1CCE
:10095000BB1C2A95D2F7482959296A297B2904C04A
:10096000880F991FAA1FBB1F0A95D2F78A019B0106
:100970000C211D212E213F210417150726073707BB
:1009800089F48C299D29AE29BF29BC01CD011F9175
:100990000F91FF90EF90DF90CF90BF90AF909F901E
:1009A0008F90089580959095A095B0958C219D216C
:1009B000AE21BF21EACF0F93382F262F609141023D
:1009C000709142028091430290914402042F432F80
:1009D0000E9487040F910C9407160E94BD1A0E9472
:1009E0006718811102C00E9404190C9455070C94D9
:1009F000570708950C94F90481E008950C94FC04C1
:100A0000CF93C82F0E94FA048C2FCF910C94FE0430
:100A100008950E9433120E9408052FEF84E39CE0A2
:100A2000215080409040E1F700C000000C94971ADC
:100A30000F931F93CF93DF93EC0161E00E94BC03FF
:100A40008C01BE010E94C708882359F1BE01C8016C
:100A50000E948403882329F1BE01C8010E94C60BAD
:100A60008823F9F0BE01C8010E94070C8823C9F051
:100A7000BE01C8010E942A0D882399F08A8188232B
:100A800039F001158CE5180751F00E3D1C4579F041
:100A9000CE01DF91CF911F910F910C9480030E94A2
:100AA000090580E0DF91CF911F910F9108950E9479
:100AB0000419F7CF90E080E008950895FC01EE0F4F
:100AC000FF1FE455FB4F859194910895CF93DF93D9
:100AD0000E94900A0E947B06EC01811520E5920796
:100AE00008F042C0811530E4930708F0BDC0883E8D
:100AF000910528F5803E910508F09DC0883A910542
:100B000088F4853A910508F08FC08130910509F489
:100B100092C0009709F48FC0049708F08CC0D0E011
:100B2000C0E089C08F3B910508F489C0805C9109C1
:100B3000C03CD105A0F30E945E05EC017CC081158C
:100B4000904250F4C11581E0D80708F074C0C03F4E
:100B5000D10528F3D0656FC0C11590E3D90708F01F
:100B600079C0CE019F70E7CF811525E5920758F532
:100B7000811534E5930708F0A6C0811542E5940776
:100B800050F4C11581E5D80708F471C0DC2FCC27DB
:100B9000C16FD06A50C0982F969596959E0123708C
:100BA0003327C115D34508F07FC0C1E0D0E002C0B3
:100BB000CC0FDD1F2A95E2F720E2929FC00111249D
:100BC000C82BD92B6FC0C11589E5D807A8F4C1156A
:100BD00098E5D90708F07CC0C11526E5D20708F0D2
:100BE0009ECF8C2F0E941207C82FD0E0DC2FCC277D
:100BF000CC27DF71D0621FC0C1153AE5D30708F4D6
:100C00006CC0CE0190568115904208F088CF8D2F90
:100C10008F710E94120790E0982F882788279F7174
:100C20009C012C2BE901E6CFC55AD0E0CD5BDE4F0D
:100C3000C881D0E0D064CE01DF91CF910895C85A29
:100C4000D0E0CC0FDD1FCB5EDE4F0990D881C02DE8
:100C5000D464F1CFCE019927D3FF03C0EC01D86C47
:100C6000EACFEC01D06CE7CFDF70D06AE4CFCE01E1
:100C7000E4E096958795EA95E1F783702C2F269509
:100C80002695237090E2299F90011124382B8C2FF8
:100C90008370C1E0D0E002C0CC0FDD1F8A95E2F77F
:100CA000C22BD32BDC68C7CFC1E0D0E002C0CC0F91
:100CB000DD1F2A95E2F730E2939FC0011124C82B73
:100CC000D92BDA68B8CFD82FCC27C46FD06AB3CF6E
:100CD000DC2FCC27C06FD06AAECF8C2F8F700E94D4
:100CE000120734E0D695C7953A95E1F7CF709C2F5F
:100CF000EC01D069A0CF82389105B1F1B0F4813315
:100D0000910509F475C048F48932910509F469C068
:100D10008A32910509F473C008958533910509F469
:100D200059C08933910501F10895833E9105A9F1D8
:100D300038F4803E9105F9F0823E910549F108951D
:100D4000863E9105A9F1873E9105C9F1843E910542
:100D500019F52091D60221FF1FC08091D50284FD94
:100D600014C087EE90E008952091D5022370A1F081
:100D700080EE90E008952091D50220FD47C030918B
:100D8000D60230FF09C024FF44C090E080E004C0D8
:100D90002091D50222FDF7CF08952091D50222FDA2
:100DA0003BC03091D60230FDE3CF24FFF5CFEDCF2D
:100DB0002091D50223FFF0CF24FDE7CFD2CF2091A1
:100DC000D50223FD2CC03091D60231FFEECF84EE48
:100DD00090E008952091D50225FFDECF89E290E0D2
:100DE00008952091D50225FFD7CF85E390E008959F
:100DF0002091D50226FFD0CF8AE290E0089520917D
:100E0000D50226FFC9CF81E390E0089589E390E001
:100E1000089583EE90E0089582EE90E0089586EEC6
:100E200090E008959091D50292FF06C0282F287176
:100E30002830F9F4877F846093FF06C0282F28713B
:100E40002831F1F4877E84612091D60220FF06C00C
:100E5000382F38713830D9F4877F816021FF06C080
:100E6000282F28712831D1F4877E816194FD877EF7
:100E70000895282F24712430F9F68B7F8860DCCF09
:100E8000282F2471243101F78B7E8861DDCF382F24
:100E90003171313019F78E7F8860E0CF282F2171B2
:100EA000213121F78E7E8861E1CF0C947E030C9472
:100EB0007F03E82FF0E0EE0FFF1FE754FD4F808126
:100EC00091810895089580EA8A95F1F70895AFE435
:100ED000B1E061E070E08D91E82FE295EF70F0E015
:100EE00041A18F709B0101C0220F8A95EAF7922FD2
:100EF0009095942391A382A1822B82A381E0AB35AC
:100F0000B80749F7A6E4B1E061E070E08D91E82F01
:100F1000E295EF70F0E041A18F709B0101C0220FBC
:100F20008A95EAF7922F9095942391A382A1822B20
:100F300082A381E0AF34B80749F7E1EAF2E0A9EB18
:100F4000B2E089EB92E0119211921D921D928E17E0
:100F50009F07C9F78CE00E9436080C94ED048F922D
:100F60009F92AF92BF92CF92DF92EF92FF920F9338
:100F70001F93CF93DF938FE4E82E81E0F82E01EAF0
:100F800012E0912CAA24A394B12CF70181917F0146
:100F9000C82FC295CF70D0E099A18F70650101C0B4
:100FA000CC0C8A95EAF7892F8C2989A38AA18C2CED
:100FB000809488218AA30E946307E6E4F1E050E070
:100FC00040E030E020E06191A62FA295AF70B0E044
:100FD00090968C9190E06F7002C0959587956A9578
:100FE000E2F780FD3EC0C501042E02C0880F991FA4
:100FF0000A94E2F7282B392B4F5F5F4F4930510598
:1010000011F789A1882289A28AA1C82ACAA2F80157
:10101000808191812817390739F13183208381E05C
:10102000982A0E5F1F4FFBE5EF16F1E0FF0609F06F
:10103000ACCF292D4CE069EB72E081EA92E00E948E
:1010400037080E94F704892DDF91CF911F910F91EE
:10105000FF90EF90DF90CF90BF90AF909F908F90D8
:10106000089590E080E0C6CF80E0DACF0895FF9247
:101070000F931F93CF93DF93F82E092F162FD72F9F
:10108000C42F222349F081E080939E010E944C1AD4
:1010900090939D0180939C0180919E018823A1F0F3
:1010A00080919C0190919D010E94641A069760F0C6
:1010B000EF2DF02FA12FBD2F90E080E0D0E08C1716
:1010C0009D0744F010929E01DF91CF911F910F91E7
:1010D000FF900895219131912D933D930196EFCF8B
:1010E00082E290E00E945425803289F483E290E00D
:1010F0000E945425883059F484E290E00E945425DF
:1011000091E0893209F090E0892F8170089580E0A4
:10111000FCCFCF93C82F6FEF811160E282E290E0A5
:101120000E9462256FEFC11168E083E290E00E94A7
:1011300062256FEFC11169E284E290E0CF910C94D7
:10114000622580E00E9489080C946118089585E268
:1011500090E00E945425682F70E090E080E00895B0
:1011600085E290E00C9462250E94A6080E94700817
:1011700081110CC060E070E0CB010E94B0080E94B9
:10118000080A0E94F20A81E00C9489080895CF931E
:10119000FB01C281CC2309F19C0122513F45203142
:1011A000310520F582510E94020BC0E08C2FCF91B7
:1011B000089581E00E942D1643E062E081E00E94E4
:1011C000DB04F3CF81E00E944E1643E062E081E051
:1011D0000E94DB04EBCF82E0F6CF8031FFE59F0772
:1011E00089F381319F45B9F3C1E0E0CF8031EFE56C
:1011F0009E07F9F281319F45C9F682E0DBCF2FEFE0
:10120000FC0120830895EF92FF920F931F93CF93D9
:10121000DF93EC01062FE881E150E33108F05EC076
:10122000F0E0E856FA4D0C943325198289E08A8360
:10123000602FCE01DF91CF911F910F91FF90EF9022
:101240000C94431E8981823069F0833071F08130C3
:10125000D9F40E94581A0E9439256A837B838C83B3
:101260009D83E6CF0E94A708F6CF7E0110E0812F74
:101270000E945907F701928383831F5FF2E0EF0E0C
:10128000F11C1C30A1F7D4CF602FCE010E94FF08C3
:10129000CFCF89818230C1F76A817B818C819D812A
:1012A0000E9439250E94B008C3CF4B816A81898191
:1012B0000E94DA099827892798279D838C83B8CFC5
:1012C0002C813D813227232732274B816A818981F6
:1012D0000E94F309ADCF0E94080AAACF8FEF88833E
:1012E000A7CF0E949D0A8983A3CF0E949F0A9827B7
:1012F000892798279A8389839BCF6B8170E08981A6
:101300009A81AE014C5F5F4F9827892798270E94EA
:10131000A20A8ECF6B8170E089819A81AE014C5F09
:101320005F4F9827892798270E94C80A81CF0E947B
:10133000F20A7ECF0E94C809D6CF6B8170E0898106
:101340009A81AE014C5F5F4F9827892798270E94AA
:10135000400A6ECF6B8170E089819A81AE014C5F4B
:101360005F4F9827892798270E94660A61CF0E94BD
:10137000A1085ECF0E94431E2FEF81EE94E0215022
:1013800080409040E1F700C000000E94971A50CFC3
:1013900084E0089550E0440F551F92E1699F400D8D
:1013A000511D112498ED899F400D511D1124CA0132
:1013B000869608950F931F93CF93DF930E94CA09D7
:1013C0008C010E945425C82FD0E0DC2FCC27C80107
:1013D00001960E9454259E01282BC901DF91CF91CF
:1013E0001F910F9108950F931F93CF93DF93122FA7
:1013F000032F0E94CA09EC01602F0E946225612F11
:10140000CE010196DF91CF911F910F910C9462252F
:10141000AF92BF92CF92DF92EF92FF921F93CF9342
:10142000DF938CEAC82E80E0D82ED0E07601C0E0B1
:1014300014C0F50125913491412F6C2F8D2F0E94FE
:10144000F30982E0A80EB11C1F5F193091F782E109
:10145000E80EF11CCF5FCC3019F0570110E0E9CF56
:10146000DF5F88EDC80ED11CD43001F7DF91CF913A
:101470001F91FF90EF90DF90CF90BF90AF900895B5
:10148000EF92FF920F931F93CF93DF93EC018A01AA
:101490007C01E60EF71ECE018696CE15DF0539F4E7
:1014A000DF91CF911F910F91FF90EF900895C0367B
:1014B00023E0D20740F40E945425F80180830F5F97
:1014C0001F4F2196E8CFF8011082F9CFCF92DF921B
:1014D000EF92FF920F931F93CF93DF937C016A01EA
:1014E0008C01060F171FEC01CE018696C017D1079D
:1014F00049F4DF91CF911F910F91FF90EF90DF9012
:10150000CF900895C03623E0D20740F4FE01EE19D3
:10151000FF09EC0DFD1D60810E9462252196E4CF3C
:10152000462F843038F47C3028F4693018F4672F63
:101530000C94DA0990E080E0089580E108958AE74C
:1015400090E00895EF92FF920F931F93CF93DF9354
:10155000EC018A017C01E60EF71ECE018A579C4FF2
:10156000CE15DF0539F4DF91CF911F910F91FF90D8
:10157000EF900895CA37D10540F40E945425F80130
:1015800080830F5F1F4F2196E8CFF8011082F9CFBB
:10159000CF92DF92EF92FF920F931F93CF93DF933F
:1015A0007C016A018C01060F171FEC01CE018A57DE
:1015B0009C4FC017D10749F4DF91CF911F910F9134
:1015C000FF90EF90DF90CF900895CA37D10540F497
:1015D000FE01EE19FF09EC0DFD1D60810E946225E0
:1015E0002196E4CFCF93DF93C6E8D3E060E0CE014D
:1015F0000E9462252196C11584E0D807B9F7DF91D2
:10160000CF910895DF92EF92FF920F931F93CF93A4
:10161000DF9300D000D0CDB7DEB7F82E8FE08F1566
:1016200040F08FEF93E00E94542506E813E08823F2
:10163000C1F00F900F900F900F90DF91CF911F91FD
:101640000F91FF90EF90DF900895011584E0180747
:1016500081F3C8010E945425811101C0FA940F5FE3
:101660001F4FF110F2CF19821A821B821C82DD24D7
:10167000D39478018FEFE81AF80AC8010E94542524
:1016800089831A828823A9F29FEF980F933078F408
:101690008A83D9820E5F1F4FC7010E9454258B8316
:1016A000882339F2CE0101960E948404E2CF87019B
:1016B000F9CF0F931F93CF93DF93C62FD42F022F11
:1016C000FC0182818823C9F06093A1010E944C1A19
:1016D0009093A00180939F0180E28C0F883008F0E6
:1016E00050C0C77081E001C0880FCA95EAF7DF914A
:1016F000CF911F910F910C94B70F1091A101161368
:1017000035C080919F019091A0010E94641A883C8D
:10171000910560F5C0E2CD0F1D17B9F080E2810F91
:10172000883040F4177081E001C0880F1A95EAF7FD
:101730000E94BE0FC83048F481E09D2F977001C011
:10174000880F9A95EAF70E94B70F802F0E94A40F86
:10175000C830B8F4D77081E001C0880FDA95EAF795
:10176000DF91CF911F910F910C94BE0F80E28C0FEF
:10177000883038F4C77081E001C0880FCA95EAF755
:10178000EFCFDF91CF911F910F9108959C01CB0175
:10179000233F4CE5340731F190F4283DFCE53F0749
:1017A000E9F0293D4CE5340769F1273D3C4579F4E2
:1017B00026E241EE61EE0E94590B80E00895253F3C
:1017C000FCE53F07B9F090F0263F3C45B9F0FC013D
:1017D00082818823D1F01092A101089527E245EE7D
:1017E00065EEE9CF26E241EE60EEE5CF27E245EE79
:1017F00064EEE1CF26E241EE62EEDDCF27E245EE78
:1018000066EED9CF28E241E0EBCF81E00895CF9397
:10181000DF93EC01FB018281882309F419C1C230F6
:10182000FCE5DF07C0F1C6319CE5D90730F09E0129
:101830002A5F3C452930310570F50E947A18909353
:10184000D6028093D502C031ECE5DE0709F4CFC0A3
:1018500008F05BC0C8308CE5D80709F4B6C088F53D
:10186000C430ECE5DE0709F4A8C0C0F4C2308CE552
:10187000D80709F49CC08091D5028260C330DC4552
:1018800009F498C08091D5029091D6020E948818E0
:101890000E94331280E0DF91CF9108958091D502AC
:1018A0008061C630ECE5DE0709F484C08091D50282
:1018B0008860C730DC4508F47DC08091D502806225
:1018C00079C0CC308CE5D80709F489C070F48091D8
:1018D000D5028C60CA30ECE5DE0709F46BC008F471
:1018E00078C08091D5028E7F65C0CE308CE5D80758
:1018F00009F479C08091D5028B7FCF30DC4508F4A4
:1019000059C08091D5028F7E55C0CB3FECE5DE07F4
:1019100009F457C030F5C3318CE5D80709F46FC01E
:1019200078F4C131ECE5DE0709F465C0C231DC456D
:1019300009F0A8CF0E9433128091D5028F773AC068
:10194000C5318CE5D80709F462C008F476C08091EF
:10195000D6028160CA3FDC4509F094CF8093D6025D
:1019600091CFCF3FFCE5DF0709F44DC088F48091AB
:10197000D6028D7FCD3F9CE5D90781F38091D602B9
:101980008E7FCE3FDC4550F38091D6028360E6CF58
:10199000C130FDE5DF0709F459C008F444C080E018
:1019A000C230DD4509F06ECF0E9406196BCF8091E1
:1019B000D50281608093D50265CF8091D502846085
:1019C000F9CF8091D6028260C9CF8091D502806420
:1019D000F1CF0E9433128091D5028068EBCF8091C5
:1019E000D5028D7FE7CF8091D502877FE3CF8091AD
:1019F000D5028F7DDFCF8091D5028F7BDBCF8091A9
:101A0000D502837FD7CF8091D6028C7FA7CF8091DC
:101A1000D50282FB992790F921E0922790FB82F969
:101A200090FB83F9C7CF8091D602982F9095917043
:101A30008E7F892B90FB81F991CF0E943312909178
:101A4000D502892F97FB87F98058B4CF81E0ACCFBE
:101A500081E021CFCF93DF93EB0186319C4511F5D7
:101A60000E94B2179A81992399F08A7A91E009F439
:101A700090E09093A201811109C089E20E948D1724
:101A80000E94FE1780E0DF91CF91089585E3F6CFA5
:101A90008091A201811104C089E20E949417F0CFC5
:101AA00085E3FBCF81E0EFCF9093A8018093A7015E
:101AB0000895E091A701F091A801309721F00190DD
:101AC000F081E02D099480E00895E091A701F09164
:101AD000A801309799F020911401222359F0209108
:101AE000D50227FF07C0DC012C9111962C9311978A
:101AF00025E02C930280F381E02D09940895E09174
:101B0000A701F091A801309739F022E0DC012C9375
:101B10000480F581E02D099408952091A50130916C
:101B2000A6012817390771F09093A6018093A501AB
:101B3000E091A701F091A801309721F00680F7818C
:101B4000E02D099408952091A3013091A401281754
:101B5000390771F09093A4018093A301E091A7014C
:101B6000F091A801309721F00084F185E02D0994CF
:101B7000089585B7806885BF85B7806885BF08955B
:101B8000089508950C94C00D08950C94C40D0E94FE
:101B9000B90D0E94C10D0C94C20D81E008950C9402
:101BA000CD0D0E94431A0E9467070E94B4080E944C
:101BB000D41A0C94C50D7F928F929F92AF92BF92D0
:101BC000CF92DF92EF92FF920F931F93CF93DF9309
:101BD000CDB7DEB72A970FB6F894DEBF0FBECDBFE4
:101BE0000E94AF070E94CF0D882309F471C04AEA12
:101BF000A42E41E0B42E10E000E0702E802F0E9451
:101C000059076C01F501819091905F018816990642
:101C100009F458C080916E0281FD0E94620780E045
:101C2000EE24E394F12C8C249D2494012E213F2159
:101C3000232B09F441C08E837F82CE20DF2081E0F8
:101C4000CD2809F480E088870E944C1A8160782FA3
:101C50009A8789874E815F8168858A850E948D0E6B
:101C6000000F111FF801E655FE4F80819181E82693
:101C7000F926F182E0820E94611C0E94590D909128
:101C8000A9018917B1F10E94590D8093A9012A96E3
:101C90000FB6F894DEBF0FBECDBFDF91CF911F917D
:101CA0000F91FF90EF90DF90CF90BF90AF909F90FB
:101CB0008F907F900C9400058F5FEE0CFF1C893095
:101CC00009F0B3CF0F5F1F4F0C30110509F095CF0E
:101CD0008FEF89838A831B820E944C1A8160782F40
:101CE0009D838C8349815A816B818D810E948D0EE9
:101CF000C2CF2A960FB6F894DEBF0FBECDBFDF91DC
:101D0000CF911F910F91FF90EF90DF90CF90BF90F8
:101D1000AF909F908F907F900895CF93DF93CDB732
:101D2000DEB72B970FB6F894DEBF0FBECDBF4F8343
:101D3000588769877A878B871E821D8285E0FE011E
:101D40003796DE01119601900D928A95E1F749814F
:101D50005A816B817C818D819E812B960FB6F89480
:101D6000DEBF0FBECDBFDF91CF910C94A914FC0153
:101D7000808191810C945F17CF93C82F882309F439
:101D80008BC08238C1F40E94590D81FD85C089E362
:101D90000E948D170E94FE172FEF81EE94E02150D4
:101DA00080409040E1F700C0000089E30E94941752
:101DB000CF910C94FE178338A1F40E94590D80FD39
:101DC0006BC083E50E948D170E94FE172FEF81EEF6
:101DD00094E0215080409040E1F700C0000083E58E
:101DE000E5CF8438A1F40E94590D82FD55C087E4E7
:101DF0000E948D170E94FE172FEF81EE94E0215074
:101E000080409040E1F700C0000087E4CFCF8CEF26
:101E10008C0F813A90F46C2F809100019091010118
:101E20000E941F19882329F08C2F0E9494170E946A
:101E3000FE178C2F0E948D17BBCF80E28C0F88304D
:101E400048F4C77081E001C0880FCA95EAF70E9484
:101E5000B517AECFEBE5EC0FE33040F4F0E0E75719
:101E6000FE4F808190E0CF910C948D0DE8E5EC0F52
:101E7000E73150F4F0E0EE0FFF1FE55AFE4F80818E
:101E80009181CF910C94A30DC03F30F08C2F0E9414
:101E90006F1BCF910C94561CCF910895882309F4A1
:101EA00052C0823871F40E94590D81FF4CC089E301
:101EB0000E948D170E94FE1789E30E9494170C94CC
:101EC000FE17833859F40E94590D80FF3CC083E50A
:101ED0000E948D170E94FE1783E5EFCF843859F4D6
:101EE0000E94590D82FF2FC087E40E948D170E9427
:101EF000FE1787E4E2CF9CEF980F913AF0F290E260
:101F0000980F983050F4877091E001C0990F8A952E
:101F1000EAF7892F0E94BB17D2CF9BE5980F933029
:101F200020F490E080E00C948D0D98E5980F9731A7
:101F300020F490E080E00C94A30D803F20F00E94FC
:101F4000D71B0C94561C0895CF93C82F0E94BC0E2B
:101F5000C93349F42FEF87EE93E021508040904041
:101F6000E1F700C000008C2FCF910C944E0F882316
:101F700021F00E94B5170C94FE170895882321F0D4
:101F80000E94BB170C94FE170895BF92CF92DF9268
:101F9000EF92FF920F931F93CF93DF936C01D62F95
:101FA000C72FFC01058102950F70128111110E944B
:101FB000D2170E94AB17E82E882391F01123D1F09D
:101FC0008C2F807F803421F080E28D0F883090F05C
:101FD00082E00E9449180E94AB1791E0E82EE926A2
:101FE000BC2EB2949FE0B922EB2DF0E0E555FA4DFE
:101FF0000C943325E12CF4CF0C2F0F70C07F11F01F
:102000000295007F1123A9F0002359F080E28D0F83
:10201000883010F0D11109C0802F0E94B5170E949E
:10202000FE178D2F0E94BC0E14C0802F0E94C51772
:10203000F6CF8D2F0E944E0F002359F080E28D0FB6
:10204000883010F0D1112CC0802F0E94BB170E9445
:10205000FE172B2D2850330B2430310520F40E941D
:10206000590D0E940005EE2009F49EC10E94A71799
:1020700080FD9AC1F60112820E94A1170E942D16BE
:10208000C6010E94F5110E94A117DF91CF911F9107
:102090000F91FF90EF90DF90CF90BF900C944E1671
:1020A000802F0E94CB17D3CFFC2FFF70FF2EC07F55
:1020B000C03219F0F29480EFF822DD2369F0D130BC
:1020C00049F1112391F1002351F1F601858180FF3F
:1020D000A8CF8F70858323C0112381F0011106C022
:1020E0000E94E5178F290E94B70FB3CF0130C1F7C7
:1020F0000E94E5178F290E94EB17ABCF011106C094
:102100000E94F4178F2D0E94BE0FA3CF013009F457
:10211000A0CFF6CF112329F0063008F09ACF8F2DEB
:10212000E2CF053008F095CFEDCF002359F3D93336
:1021300049F4FFEF27EE33E0F15020403040E1F763
:1021400000C000008D2F0E944E0F83CF8C2F8695EC
:102150008695837069F0813009F07BCF8D2F9C2F9D
:102160009370111102C090E080E00E94A30D71CF26
:102170008D2F9C2F9370111102C090E080E00E947F
:102180008D0D67CF8D2F112329F00E946F1B0E94A8
:10219000561C5FCF0E94D71BFACF8C2F837009F09B
:1021A00041C0111156CF4D2F429546954770440FAF
:1021B000440F0D2F0F7010E030E020E0042E04C01B
:1021C000000F111F221F331F0A94D2F760E070E046
:1021D000CB01D4FF0FC06FE070E080E090E004C05E
:1021E000660F771F881F991F4A95D2F760957095E3
:1021F00080959095C695C695C370602B712B822BE8
:10220000932BC23049F058F4C13019F00E94DF1509
:1022100020CF0E94CD151DCF0E94F1151ACF0E942C
:10222000CB1517CF8695112311F08C2F8170882341
:1022300009F40FCF4D2F429546954770440F440F38
:102240000D2F0F7010E030E020E0042E04C0000FCE
:10225000111F221F331F0A94D2F760E070E0CB01F8
:10226000D4FF0FC06FE070E080E090E004C0660F24
:10227000771F881F991F4A95D2F7609570958095B2
:102280009095C695C695C370602B712B822B932BAE
:10229000C23049F058F4C13019F00E94A416D9CECA
:1022A0000E949216D6CE0E94B616D3CE0E94071672
:1022B000D0CECF70112329F08C2F0E942D168D2F98
:1022C00012CF8D2F0E94BE0F8C2F0E944E16C1CEB2
:1022D000D23F89F160F4D03FC9F0D13F29F11123F9
:1022E00009F442C001119DCE8C2F8F7121C0D33FC4
:1022F00039F1D43FA1F7112369F1CF718C2F0E94DE
:102300002D1663E08C2F0E943418A3CE112341F0C8
:10231000053008F09ECE8C2F8F710E94711699CED9
:10232000063008F096CEF7CF8C2F8F71112369F20B
:102330000E942D168ECE8C2F8F711123C9F3C5CF1D
:10234000112329F08C2F8F710E94181682CE0E94C3
:1023500013167FCE81E00E944918023008F479CE2E
:1023600082E00E94491875CE002359F0D93309F054
:10237000E9CE8FEF97EEE3E081509040E040E1F747
:10238000DFCE8C2F8F71A1CF4C2F4F706D2FC601D8
:102390000E945A050E9443155CCE4C2F4F706D2F42
:1023A000C6010E945D0555CEDF91CF911F910F911F
:1023B000FF90EF90DF90CF90BF9008950F931F9301
:1023C000CF93DF93EC01688179818A810E9469173C
:1023D0008C010E94C8160E94CA15B801CE01DF9177
:1023E000CF911F910F910C94C50FCF93DF93EC0108
:1023F0008B819C81892B29F08881998189238F3F4A
:1024000059F4DF91CF910895CE010E94DE11CE01E3
:10241000DF91CF910C94C503CE010E941805811164
:10242000F3CF0E94AB17882361F38A81882349F395
:1024300082E0DF91CF910C9449180E94D2170E943C
:10244000E2170E94FE170E947B1D0E94561C90E01E
:1024500080E00E948D0D90E080E00C94A30D0E941E
:102460009B170C941D120E94C2170C942F12E92F77
:10247000E295EF70E250EE3070F4F0E0E554FA4D82
:102480000C943325803F19F020F4883E20F481E03D
:102490000895843FE1F380E00895883EC0F3813FD2
:1024A000D1F7F5CF93FB882780F908950E945F1735
:1024B0000C943712CF93DF9300D000D00F92CDB79A
:1024C000DEB70F900F900F900F900F90DF91CF918C
:1024D0000895CF93DF9300D000D000D0CDB7DEB702
:1024E00026960FB6F894DEBF0FBECDBFDF91CF9119
:1024F00008951F93CF93DF93C091C30116E080919D
:10250000C4018C1304C0DF91CF911F910895D0E0D6
:102510001C9FF0011D9FF00D1124EB53FE4F4081D5
:10252000518162817381848195810E946912219613
:10253000C770E5CF4091F5015091F6016091F70128
:102540007091F8018091F9019091FA010C9469124F
:102550001F93CF93DF938091FA01807FA9F480913C
:10256000F701882389F08091C301C091C401609173
:10257000F5017091F601A091F801B091F901D62F03
:10258000D72316E0C81304C0DF91CF911F9108959F
:1025900090E0109711F0DF3F19F401968770F2CFA9
:1025A000189F9001199F300D1124F901EB53FE4F34
:1025B00041814713F2CF40814613EFCF4281411151
:1025C000ECCF438154814A1B5B0B483C510528F7F3
:1025D0008091FA018F7080618093FA01F901E653CE
:1025E000FE4F80818F708061808385EF91E00E9433
:1025F000F511DF91CF911F910C947912AF92BF9298
:10260000CF92DF92EF92FF920F931F93CF93DF93BE
:10261000CDB7DEB761970FB6F894DEBF0FBECDBF62
:102620008C0185E0F801DE011D9601900D928A95DE
:10263000E1F7F80140815181E28085EFC82E81E009
:10264000D82E6091F8017091F9016115710509F4B6
:1026500061C19091F5012091F601892F82238F3F6E
:1026600009F458C1A380B480F090F701F501E61B8E
:10267000F70BFF2009F4FCC08091FA01382F307F5E
:10268000E83CF10508F0B2C0311179C0FE2C2513E9
:1026900023C0941321C0E1101FC08F70806180930C
:1026A000FA010E949A12C6010E94F5118091FA0166
:1026B000F80185838F2D61960FB6F894DEBF0FBEAB
:1026C000CDBFDF91CF911F910F91FF90EF90DF90E1
:1026D000CF90BF90AF900895AB2829F0842F852329
:1026E0008F3F09F033C180E0F82FF170DF2E80FFBB
:1026F0003CC08091C3012091C40136E0821315C013
:102700004D875E878D859E850E945F17292F2295B4
:102710002F702230F0F0243018F59F70F1F0F8019E
:102720009581907FD1F4D12C1EC090E0389FF001AC
:10273000399FF00D1124EB53FE4F6181651306C0E4
:102740006081641303C062816E110FC001968770AF
:10275000D5CF9F7011F0882331F3805E883018F355
:10276000C8010E94F511FD2CA5CFEE2009F4A2CFDF
:102770008091FA0181608093FA01F12C9BCF25139F
:1027800006C0941304C0F801EE2009F48DC04D87F3
:102790005E878D859E850E945612882319F1EE2052
:1027A00009F18091FA01803270F02091F5013091A9
:1027B000F60138872F831986BB86AA868C87CE01BF
:1027C00007960E94F51186E0F801A5EFB1E00190AF
:1027D0000D928A95E1F70E94A8120E949A12FF2496
:1027E000F39468CFC8010E94F511F9CF311113C0DD
:1027F0007A2DB98AA88A6E2D89890E945A1285EF8E
:1028000091E00E94F51186E0F60111928A95E9F7B0
:102810000E949A12B2CF25130FC094130DC0E1107D
:102820000BC0F8018583C8010E94F51186E0F6010E
:1028300011928A95E9F73ECF4D875E878D859E85FB
:102840000E945612882371F2EE2061F28091FA0103
:10285000803208F4B8CF2091F5013091F6013A8327
:1028600029831B82BD82AC828E83CE010196A9CFC3
:10287000E83CF10508F041C0FE2CEE2009F4B2CF8F
:1028800025132AC0941328C08091FA0180FD1BC033
:10289000982F907FC1F0F8018583903F31F0982FF9
:1028A000907F905F8F70892B8583C8010E94F511FE
:1028B00086E0F801A5EFB1E001900D928A95E1F76D
:1028C0000E949A12F7CE86E0F801A5EFB1E00190E0
:1028D0000D928A95E1F7EECE4D875E878D859E85B8
:1028E0000E94561281116FCF8091FA01816080930E
:1028F000FA01C8010E94F511DDCE7A2DB98AA88AA5
:102900006E2D89890E945A1286E0F60111928A95ED
:10291000E9F7D6CFEE2009F465CF4D875E878D8528
:102920009E850E945612F82E882309F45BCF86E01C
:10293000F801A5EFB1E001900D928A95E1F785EFDE
:1029400091E00E94B70E0E94A812BACF81E08E25B6
:10295000CBCE1F93CF93DF93CDB7DEB72C970FB6B7
:10296000F894DEBF0FBECDBF4F83588769877A8743
:102970008B879C87CE0107960E94FE12882369F000
:102980008A859B85892B39F04F815885842F852333
:102990008F3F09F071C016E05FC086E0FE013796F8
:1029A000DE01119601900D928A95E1F78A859B854B
:1029B000892B89F388859F8189238F3F61F320913B
:1029C000C40130E0C9010196877099274091C30185
:1029D0004817190671F40E9433121092C401109224
:1029E000C30186E0E5EFF1E0DF011D928A95E9F78A
:1029F000D2CF96E0929FD001939FB00D1124AB539C
:102A0000BE4FFE01319601900D929A95E1F78093A9
:102A1000C4010E947912BFCF819FC00111248B5342
:102A20009E4F0E94FE128823E9F0E091C3011E9F91
:102A3000F0011124EB53FE4F40815181628173817B
:102A4000848195810E9469128091C30190E0019672
:102A5000877099278093C3018091C3019091C4012D
:102A60008913DACF2C960FB6F894DEBF0FBECDBF18
:102A7000DF91CF911F91089569857A858B859C851B
:102A80000E94691288CFEF92FF920F931F93CF930A
:102A9000DF938C01892B81F0F12CEE24E394E80183
:102AA0002196F8018491843770F4843008F05FC077
:102AB0008130B1F08230A1F1DF91CF911F910F9160
:102AC000FF90EF900895853709F44CC008F43DC09D
:102AD0009CE7980F903780F78F770E944E0F49C080
:102AE0000E5F1F4FFE01849190E2980F983060F4C2
:102AF0008770FE2D01C0FF0F8A95EAF78F2F0E9485
:102B0000D5170E94FE1702C00E94BC0E8F2D815067
:102B100030F2EFE9FFE03197F1F700C00000F7CFA6
:102B20000E5F1F4FFE01849190E2980F983050F491
:102B30008770FE2D01C0FF0F8A95EAF78F2F0E9444
:102B4000DB17DFCF0E944E0FE1CF0E5F1F4FFE015C
:102B5000C491C150D8F28FE99FE00197F1F700C00E
:102B60000000F7CF0E5F1F4FFE01F490CFCF0E9401
:102B7000BC0E8E01CBCF08950C94BB150E94BC15E2
:102B800060934502709346028093470290934802F7
:102B90000C941D1208950C94BE150F931F93009171
:102BA0004502109146022091470230914802602B65
:102BB000712B822B932B1F910F910C94BE150F93A9
:102BC0001F930091450210914602209147023091D7
:102BD000480260237123822393231F910F910C9449
:102BE000BE150F931F93009145021091460220914C
:102BF00047023091480260277127822793271F914F
:102C00000F910C94BE150C94BB150C9403160E94E6
:102C100005166093410270934202809343029093A1
:102C200044020C941D1260E070E0CB010C94071676
:102C30000F931F9341E050E060E070E08A019B0138
:102C400004C0000F111F221F331F8A95D2F7C9013C
:102C5000B8011F910F910C9407160F931F9341E039
:102C600050E060E070E004C0440F551F661F771FFE
:102C70008A95D2F78091410290914202A09143023D
:102C8000B09144028A019B01082B192B2A2B3B2B64
:102C9000C901B8011F910F910C9407160F931F9350
:102CA00041E050E060E070E004C0440F551F661F33
:102CB000771F8A95D2F7CB01BA0160957095809500
:102CC000909500914102109142022091430230916F
:102CD000440260237123822393231F910F910C944C
:102CE00007160F931F9341E050E060E070E004C0CE
:102CF000440F551F661F771F8A95D2F780914102B6
:102D000090914202A0914302B09144028A019B013A
:102D1000082719272A273B27C901B8011F910F91BE
:102D20000C9407160F931F930091410210914202D9
:102D30002091430230914402602B712B822B932B04
:102D40001F910F910C9407160F931F93009141024E
:102D5000109142022091430230914402602371237A
:102D6000822393231F910F910C9407160F931F93A7
:102D7000009141021091420220914302309144029D
:102D800060277127822793271F910F910C940716B4
:102D9000089529E0929F800D1124982F977041E0AB
:102DA00001C0440F9A95EAF786958695869595E039
:102DB000899FF0011124E550FE4F90E080E070E023
:102DC0005191DF0111979B01082E02C0369527957E
:102DD0000A94E2F7217021952527242325272C9397
:102DE00001968530910561F7089529E0929F800D45
:102DF0001124982F977086958695869525E0829F59
:102E0000F0011124E550FE4F50E040E080E02191B8
:102E100030E0092E02C0369527950A94E2F721701A
:102E20003327042E01C0220F0A94EAF7822B4F5F4A
:102E30005F4F4530510559F70895BF92CF92DF9209
:102E4000EF92FF920F931F93CF93DF938C01C0906B
:102E50004102D0904202E0904302F09044028091FF
:102E6000450290914602A0914702B0914802C82ABB
:102E7000D92AEA2AFB2ACFE1D0E0BC2ED701C6012D
:102E80000C2E04C0B695A795979587950A94D2F70E
:102E900080FD0EC0219788F7B12C8B2DDF91CF914B
:102EA0001F910F91FF90EF90DF90CF90BF9008950A
:102EB000B8018C2F0E946605019761F3EECFCF9386
:102EC000DF93EC010E941D17BE01DF91CF910C949E
:102ED00066051F93CF93DF93EB019091C201992375
:102EE00031F0CB01DF91CF911F910C945F178823B4
:102EF00079F0CB010E941D17182F682FCE010E9478
:102F0000C916BE01812FDF91CF911F910C946605E8
:102F1000CB010E94F516182FF4CF682F8091000185
:102F2000909101010C949F19682F8091000190915C
:102F300001010C94AA1980910001909101010C9457
:102F4000B51980914902859585958595089580915B
:102F500049028770089590914902977081E009F4C1
:102F600080E0089580916D02089590916D02892B03
:102F700080936D020895809590916D0298239093AF
:102F80006D02089510926D02089590916C02892B44
:102F900080936C020895809590916C029823909391
:102FA0006C02089510926C02089590916B02892B27
:102FB00080936B020895809590916B029823909373
:102FC0006B02089510926B02089580914A02089551
:102FD00008950C94E81790914A02981721F0809375
:102FE0004A020C94E917089580914A02882329F037
:102FF00010924A0280E00C94E9170895E0910001D4
:10300000F091010180916D028083E0910001F091C7
:103010000101808190916C02892B8083E0910001F5
:10302000F0910101808190916B02892B80839091B6
:103030004A02992381F0E0910001F0910101808121
:10304000892B808380910001909101010E940B19CE
:1030500081110E94F41780910001909101010C945C
:10306000650D08950C94311898E0899F9001112402
:10307000622B609349020E942D168091490285952A
:10308000859585950C9432181092490280E00C9435
:103090003218909149028095892380934902282F04
:1030A000277071F4282F082E000C330B921713068B
:1030B00039F08595859585950E944E160C94441897
:1030C00008956FEF7FEF90E080E00C94802590E012
:1030D00080E00E945C2521E08C3E9E4F09F020E0BC
:1030E000822F089582E090E00C94542583E090E0D4
:1030F0000C945425CF9384E090E00E945425C82F6F
:1031000081E290E00E945425982F8C2FCF91089552
:10311000CF93C92F682F84E090E00E9462256C2F26
:1031200081E290E0CF910C946225AB01BC018FE06D
:1031300090E00C947425AB01BC0183E190E00C9409
:10314000742560E070E0CB010C949B1860E070E0A7
:10315000CB010E9495180C94A1186CEE7EEF90E0C4
:1031600080E00E94802560E082E090E00E9462257D
:1031700060E083E090E00E94622510924502109288
:103180004602109247021092480260E084E090E00C
:103190000E94622560E081E290E00E94622560E08A
:1031A00085E090E00E94622560E086E090E00E9469
:1031B00062256FEF87E090E00E94622540E050E0DA
:1031C000BA0188E090E00E94742560E08DE090E014
:1031D0000E94622540E050E0BA0188E190E00E9440
:1031E000742560E087E190E00E94622540E050E0B5
:1031F000BA018CE190E00E94742560E080E290E0EA
:103200000E9462250C94A6180C94AD18682F8EE0CD
:1032100090E00C946225FC01329680911401882381
:1032200021F08091D5029EE187FF96E080E09150E9
:1032300008F4089521912223D1F38F5FF8CF6623FC
:1032400001F1209114012223F1F02091D50227FFF2
:103250001AC0462F4695469546954E3190F46770B4
:1032600021E030E002C0220F331F6A95E2F7840F9D
:10327000911DFC01828190E02823392381E0232BDA
:1032800069F480E00895FC01329608962191261792
:1032900021F0E817F907D1F7F4CF81E008959C01F8
:1032A000FC0132969FEF80E04191461751F09F3F1D
:1032B00019F4411101C0982F8F5F8630A9F79F3F05
:1032C00009F40895290F311D97FD3A95F90162839C
:1032D0000895FC01329608962191261303C0DF0160
:1032E00011971C92E817F907B9F70895E62FE695AC
:1032F000E695E695EE3168F4E80FF92FF11D677059
:1033000021E030E001C0220F6A95EAF78281822B2A
:1033100082830895E62FE695E695E695EE3170F402
:10332000E80FF92FF11D677021E030E001C0220F96
:103330006A95EAF7209582812823228308952091B7
:103340001401222329F02091D50227FD0C9476192F
:103350000C944F1920911401222329F02091D502B9
:1033600027FD0C948A190C946919FC0132968091FE
:103370001401882351F08091D50287FF06C08EE1A9
:10338000DF011D928A95E9F7089586E0F9CF089547
:1033900008950C94C8190E94C9198091DB028430E9
:1033A00049F110926F0288E190E020E40FB6F894A2
:1033B000A895809360000FBE2093600080E00E947B
:1033C00000050E94C91983B7817F846083BF83B7DA
:1033D000816083BF7894889583B78E7F83BF0FB653
:1033E000F894A895809160008861809360001092A5
:1033F00060000FBE08950895CF930E94C7190E94E0
:10340000AF070E94FB19C0E08C2F0E945907892B3F
:1034100031F4CF5FCC30C1F780E0CF91089581E0E7
:10342000FCCF08950C94111A0E9433120E94590D7A
:103430000E9400050C94121A1F921FB61F921124AD
:103440008F939F93AF93BF9380916F02811113C0AD
:103450008091D1029091D202A091D302B091D40276
:103460004196A11DB11D8093D1029093D202A093E9
:10347000D302B093D402BF91AF919F918F911F90CF
:103480001FBE1F90189582E084BD93E095BD9AEF12
:1034900097BD80936E0008952FB7F8948091D10264
:1034A0009091D202A091D302B091D4022FBF08957F
:1034B0002FB7F8946091D1027091D2028091D3021B
:1034C0009091D4022FBF08959C014FB7F89480913A
:1034D000D1029091D202A091D302B091D4024FBFF9
:1034E000821B930B089578941F921FB61F9211248C
:1034F0008F939F93AF93BF938091D1029091D2020B
:10350000A091D302B091D4020196A11DB11D809368
:10351000D1029093D202A093D302B093D402BF9170
:10352000AF919F918F911F901FBE1F90189581E0C2
:103530008093E00080E28093D8001092C9008FE170
:103540009EE40197F1F700C0000087E090EBDC01FA
:103550008093E4029093E502A093E602B093E70221
:1035600088E19CE00FB6F894A895809360000FBEA8
:1035700090936000FFCF0C94A1080E94AF072FEF3B
:1035800086E791E0215080409040E1F700C00000C4
:103590000E94AF0780E00E94590780FF04C00E948C
:1035A000BB1A0C94971A08950E946718811102C0E3
:1035B0000E9404190E94721880936E020E947A1869
:1035C0009093D6028093D5020E947618682F70E0FF
:1035D00090E080E00C94CB158091770280FF12C0C0
:1035E0006091070185E0689FB0011124759567958A
:1035F0007595679560387105A8F561157105A1F19C
:10360000862F089581FF09C06091070185E0689FBA
:10361000B001112475956795EDCF6091070182FD8A
:103620000AC0809176028823D1F0909106016091C2
:103630000701891728F085E0689FB0011124DACFCF
:10364000869FB001112485E0869F9001879F300DF1
:103650001124692F70E0C9010E941F25CBCF65E0BE
:1036600070E0CECF8FE7089581E0089580917702D2
:1036700080FF0CC06091030170E0759567957595AA
:1036800067956115710549F1862F089581FF06C080
:103690006091030170E075956795F3CF6091030128
:1036A00082FD0BC0909176029923A1F060910201F6
:1036B00080910301961738F0682F70E0603871052B
:1036C00000F38FE70895899FC001112470E00E94E4
:1036D0001F25F4CF61E070E0D7CF81E00895803FEF
:1036E00031F40E94EC1A819580937B020895813F0A
:1036F00019F40E94EC1AF8CF823F31F40E94EC1AC0
:10370000819580937A020895833F19F40E94EC1A00
:10371000F8CF893F29F40E94361B80937C020895DC
:103720008A3F21F40E94361B8195F7CF8B3F31F4FD
:103730000E94361B819580937D0208958C3F19F479
:103740000E94361BF8CF843F31F48091790281606A
:10375000809379020895853F21F4809179028260F7
:10376000F7CF863F21F4809179028460F1CF873FC3
:1037700021F4809179028860EBCF883F21F4809119
:1037800079028061E5CF8D3F31F4809177028160CD
:103790008093770208958E3F21F4809177028260B2
:1037A000F7CF8F3FB9F7809177028460F1CF909186
:1037B0007A02803F41F480917B0287FD10927B0268
:1037C000992371F00895813F29F480917B021816A6
:1037D000ACF3F6CF823F81F497FFF2CF10927A02DA
:1037E00080917B0290917C02892B90917D02892BA4
:1037F00049F7109276020895833F19F4191674F36D
:10380000DFCF893F39F480917C021816CCF61092F4
:103810007C02D6CF8A3F29F480917C0287FFD0CFEB
:10382000F6CF8B3F39F480917D0287FFC9CF10928C
:103830007D02C6CF8C3F29F480917D021816BCF31F
:10384000BFCF843F31F4809179028E7F80937902DB
:10385000B7CF853F21F4809179028D7FF7CF863FE6
:1038600021F4809179028B7FF1CF873F21F4809101
:103870007902877FEBCF883F21F4809179028F7E98
:10388000E5CF8D3F31F4809177028E7F8093770270
:1038900097CF8E3F21F4809177028D7FF7CF8F3FB6
:1038A00009F08ECF809177028B7FF0CF88E792E08E
:1038B0000E947F0D0E944C1A9093750280937402AF
:1038C0000895CF93DF9300D000D000D0CDB7DEB7FE
:1038D00086E0E8E7F2E0DE01119601900D928A950C
:1038E000E1F780917A0290917B02892B81F080919F
:1038F0007202909173020E94641AAC019091760258
:10390000992331F1809108018417150670F1809197
:103910007C0290917D02892B91F0809170029091B0
:1039200071020E94641AAC0190917602992309F405
:1039300078C0809104018417150608F480C026968B
:103940000FB6F894DEBF0FBECDBFDF91CF910895C3
:10395000209109018AE0289F90011124241735073E
:10396000B0F69F5F9093760202C09F3FD1F710920E
:103970007C0210927D0280917A02181624F40E9433
:10398000EC1A80937A0280917A0287FF05C00E9428
:10399000EC1A819580937A0280917B02181624F4A8
:1039A0000E94EC1A80937B0280917B0287FF05C006
:1039B0000E94EC1A819580937B0230917A02332326
:1039C000A1F020917B02222381F045EB3403C0015A
:1039D00011249923F1F090937A0245EB240390018E
:1039E00011243323D1F030937B020E94561C809126
:1039F000740290917502909373028093720286E034
:103A0000FE013196A8E7B2E001900D928A95E1F7A8
:103A10007ECF81E080937A02E0CF81E080937B02C9
:103A2000E4CF209105018AE0289F900111242417FA
:103A3000350708F084CF9F5F9093760202C09F3FC6
:103A4000D1F710927A0210927B0280917C021816B4
:103A500024F40E94361B80937C0280917C0287FFB5
:103A600005C00E94361B819580937C0280917D0267
:103A7000181624F40E94361B80937D0280917D02EB
:103A800087FF05C00E94361B819580937D0230918F
:103A90007C023323A1F020917D02222381F045EBAB
:103AA0003403C00111249923F1F090937C0245EB7B
:103AB0002403900111243323D1F030937D020E941E
:103AC000561C8091740290917502909371028093BC
:103AD000700286E0FE013196A8E7B2E001900D92F7
:103AE0008A95E1F72CCF81E080937C02E0CF81E0E2
:103AF00080937D02E4CF86E0E8E7F2E0DF011D92EB
:103B00008A95E9F7109276021092770208958091D3
:103B10009E020895CF93DF9300D00F92CDB7DEB70A
:103B20009091DB02943011F589837B836A839093B3
:103B3000E9008FEF9091E800815095FD06C095ED6A
:103B40009A95F1F700008111F5CF8091E80085FF8B
:103B50000DC050E040E063E070E0CE0101960E94AD
:103B60003F208091E8008E778093E8000F900F90BF
:103B70000F90DF91CF910895CF93DF93EC010E94D6
:103B80002220823011F0843031F4BE0184E0DF91D4
:103B9000CF910C948A1DDF91CF910895BC0183E0F1
:103BA0000C948A1DCF93DF93EC010E942220823077
:103BB00011F08430F9F484E08093E9008FEF909164
:103BC000E800815095FD06C095ED9A95F1F700004B
:103BD0008111F5CF8091E80085FF0CC050E040E0F6
:103BE00066E070E0CE010E943F208091E8008E7771
:103BF0008093E800DF91CF910895CF93DF93EC019C
:103C00000E942220823011F08430B9F58091140195
:103C10008823B1F18091D50287FF32C060E284E051
:103C20008093E9008FEF9091E800815095FD06C0E8
:103C300095ED9A95F1F700008111F5CF8091E8009C
:103C400085FF1BC08091140170E050E040E08111BD
:103C500004C050E040E068E070E0CE010E943F20E8
:103C60008091E8008E778093E80080E2FE01AEE765
:103C7000B2E001900D928A95E1F7DF91CF9108951E
:103C800068E081E0CDCFCF93FC01603221F58091D7
:103C9000DB02843001F5C091E900CF702091EC0087
:103CA000922F917020FD90E8C92B82E08093E9006B
:103CB0008091E80080FF0CC050E040E060E270E0DE
:103CC000CF010E943F208091E8008E778093E8002A
:103CD000CF70C093E900CF9108958091DA028111ED
:103CE00009C00E941E220E947B228091E200846013
:103CF0008093E20008951092DA02089508950895DD
:103D00000C94141A42E061EC81E00E949A2142E294
:103D100061EC84E00E949A2142E261EC82E00E9420
:103D20009A2142E260EC83E00C949A218091DD02BA
:103D3000833009F461C030F48130D1F1823009F46C
:103D40009DC008958A3009F489C08B3009F46FC092
:103D5000893009F050C08091DC02813209F04BC0FB
:103D60008091E0029091E102009719F0029709F02A
:103D700042C08091E800877F8093E8008091E8004E
:103D800082FF35C09091F3008091F200029729F4F0
:103D90008091F1008B7F813021F48091F10080933C
:103DA0009E028091E8008B778093E8000C94CE21EE
:103DB0008091DC02813AF9F48091E800877F80935A
:103DC000E8008091E0029091E102892B61F460E2C9
:103DD0008EE792E070E00E94DD208091E8008B7712
:103DE0008093E800089560E090E080E0F3CF809158
:103DF000DB028111C3CF08958091DC02813AD9F7AB
:103E00008091E0029091E102892BA9F78091E8006E
:103E1000877F8093E8008091E80080FFFCCF80914D
:103E200014018093F1008091E8008E77BDCF8091DE
:103E3000DC02813201F78091E0029091E102892B4E
:103E4000D1F68091E800877F8093E8000E94CE2120
:103E50008091DE02809314010C9433128091DC0275
:103E6000813249F68091E800877F8093E8000E94C4
:103E7000CE218091DF0280939F0208958091DC0221
:103E8000813A09F0B8CF8091E800877F8093E800FD
:103E90008091E80080FFFCCF80919F02C2CFCDB718
:103EA000DEB7A0970FB6F894DEBF0FBECDBF84B7C4
:103EB000877F84BF0FB6F894A895809160008861D1
:103EC00080936000109260000FBE80E890E00FB613
:103ED000F89480936100909361000FBE0E94C70D1B
:103EE0000E941E220E947B228091E20084608093C7
:103EF000E20078940E9404250E94D10D8AE091E0AE
:103F00000E94540D13E08091DB02853039F10E944C
:103F1000DB0D8091DB028430B1F71093E9008091D2
:103F2000E80082FFF0CF8091E80090E085FF09C0B3
:103F300050E040E060E270E0CE0101960E948E20E9
:103F400091E08091E8008B778093E8009923D9F283
:103F500060E2CE0101960E940309D5CF0E94CB19E1
:103F60008091D902882379F20E94FC19882359F2A2
:103F70000E942920C8CF0C94BD1F292F332723303E
:103F8000310521F168F42130310509F449C02230AE
:103F9000310509F44AC090E080E030E020E029C01B
:103FA0002132310581F122323105A9F763307105E3
:103FB00090F7FB01EE0FFF1FE157FE4F208131818B
:103FC00064577E4FFB01808190E013C099278130B8
:103FD000910599F0009741F08230910589F003979F
:103FE000D1F6ECEAF4E002C0EAEDF4E0849190E06E
:103FF0009F01FA01318320830895EAECF4E0F6CFC3
:10400000E2EBF4E0F3CF6330710528F6660F771F1B
:10401000FB01EB56FE4F2081318189E090E0E9CF32
:1040200082E190E029E335E0E4CF8BE590E02EEDEE
:1040300034E0DFCF8091DB02843011F482E0089518
:1040400081E008958091A002811102C00C941A2091
:10405000089580E189BD82E189BD09B400FEFDCFEC
:104060008091D8008F7D8093D8008091E00082609D
:104070008093E0008091E00081FDFCCF0895AF9235
:10408000BF92CF92DF92FF920F931F93CF93DF9354
:104090006C01EB018A010E94ED21F82E811123C0F1
:1040A0000115110539F0F80180819181C81BD90BE8
:1040B000C80ED91EB12CA12C2097A9F08091E80040
:1040C00085FD22C08091E8008E778093E80001157D
:1040D0001105A1F0F80180819181A80EB91EB1826D
:1040E000A08285E0F82E8F2DDF91CF911F910F9147
:1040F000FF90DF90CF90BF90AF9008950E94ED2188
:104100008823D1F2F82EEFCFF60181916F018093D1
:10411000F1002197FFEFAF1ABF0ACECFAF92BF9247
:10412000CF92DF92FF920F931F93CF93DF936C0197
:10413000EB018A010E94ED21F82E811123C00115A7
:10414000110539F0F80180819181C81BD90BC80E87
:10415000D91EB12CA12C2097A9F08091E80085FDF3
:1041600022C08091E8008B778093E800011511054B
:10417000A1F0F80180819181A80EB91EB182A082C0
:1041800085E0F82E8F2DDF91CF911F910F91FF9039
:10419000DF90CF90BF90AF9008950E94ED218823CB
:1041A000D1F2F82EEFCF8091F100F60181936F01EB
:1041B0002197FFEFAF1ABF0ACECFFC018091E20238
:1041C0009091E30286179707A0F06115710529F415
:1041D0009091E8009E779093E80090E0611571055A
:1041E00051F4911108C08091E80082FF34C080E052
:1041F0000895BC01F2CF8091DB028823C1F18530A4
:10420000C1F18091E80083FD30C08091E80082FD1B
:10421000EACF8091E80080FFE1CF8091F300209108
:10422000F200382F6115710519F02830310558F06A
:1042300091E02830310509F090E02091E8002E77D8
:104240002093E800CBCF81918093F10061507109F8
:104250002F5F3F4FE7CF8091DB02882341F085300D
:1042600041F08091E80083FFBECF81E0089582E0B5
:10427000089583E00895FC018091E2029091E302A9
:1042800086179707A0F06115710529F48091E80061
:104290008E778093E80090E06115710551F49111DB
:1042A00008C08091E80082FF35C080E00895BC011D
:1042B000F2CF8091DB028823C9F18530C9F180916A
:1042C000E80083FD31C08091E80082FDEACF809153
:1042D000E80080FFE1CF8091F3002091F200382FB9
:1042E0006115710519F02830310558F091E028303A
:1042F000310509F090E08091E8008E778093E80026
:10430000CBCF84918093F1003196615071092F5F7A
:104310003F4FE6CF8091DB02882341F0853041F0AA
:104320008091E80083FFBDCF81E0089582E0089589
:1043300083E00895982F973028F08F708093E900DC
:1043400081E008959093E900242F762F50E098178C
:1043500031F07091EC002091ED005091F00021FDC2
:1043600002C09F5FE8CF3091EB003E7F3093EB00BF
:104370003091ED003D7F3093ED003091EB003160E6
:104380003093EB007093EC002093ED005093F0001D
:104390002091EE0027FDE5CF80E008958091DC02BA
:1043A00087FF13C08091E80082FF06C08091E8007B
:1043B0008B778093E80004C08091DB028111F2CFFB
:1043C00008958091DB028823D9F38091E80080FF73
:1043D000F8CF8091E8008E77ECCF2091E400309107
:1043E000E50095E6A9012091EC00822F817020FF65
:1043F00006C08091E80080FF06C080E0089520910B
:10440000E80022FD1AC08091DB02882389F0853004
:1044100089F08091EB0085FD0FC02091E400309180
:10442000E50042175307F9F29150E1F684E0089550
:1044300082E0089583E0089581E008950E948C222F
:104440000E949422E0EEF0E0808181608083E8EDBC
:10445000F0E080818F77808319BCA7EDB0E08C916C
:104460008E7F8C9380818F7E80831092DA020895F4
:104470000F931F93CF93DF930E948C220E9494226C
:10448000C8EDD0E088818F778883888180688883B1
:1044900088818F7D888319BC1092DB021092D7022D
:1044A0001092D9021092D80200EE10E0F80180813B
:1044B0008B7F808388818160888342E060E080E038
:1044C0000E949A21E1EEF0E080818E7F8083E2EE0F
:1044D000F0E0808181608083808188608083F80142
:1044E00080818E7F8083888180618883DF91CF91F6
:1044F0001F910F910895E8EDF0E080818F7E808319
:10450000E7EDF0E080818160808384E082BF81E01C
:104510008093DA020C943822E8EDF0E080818E7FFF
:1045200080831092E20008951092DA001092E10068
:1045300008951F920F920FB60F9211242F933F935D
:104540004F935F936F937F938F939F93AF93BF939B
:10455000EF93FF938091E10082FF0BC08091E20016
:1045600082FF07C08091E1008B7F8093E1000E9471
:1045700003258091DA0080FF19C08091D80080FF68
:1045800015C08091DA008E7F8093DA008091D90087
:1045900080FF96C080E189BD82E189BD09B400FE3B
:1045A000FDCF81E08093DB020E946D1E8091E100CF
:1045B00080FF19C08091E20080FF15C08091E20069
:1045C0008E7F8093E2008091E20080618093E20020
:1045D0008091D80080628093D80019BC85E08093D8
:1045E000DB020E947F1E8091E10084FF2BC080913E
:1045F000E20084FF27C080E189BD82E189BD89B5E1
:10460000982F917080FFFBCF8091D8008F7D809391
:10461000D8008091E1008F7E8093E1008091E200DC
:104620008F7E8093E2008091E20081608093E200BF
:104630008091D702882309F449C084E08093DB028B
:104640000E94801E8091E10083FF29C08091E200DA
:1046500083FF25C08091E100877F8093E10082E0A5
:104660008093DB021092D7028091E1008E7F8093CD
:10467000E1008091E2008E7F8093E2008091E20071
:1046800080618093E20042E060E080E00E949A2135
:104690008091F00088608093F0000E947E1EFF9160
:1046A000EF91BF91AF919F918F917F916F915F91AA
:1046B0004F913F912F910F900FBE0F901F90189523
:1046C00019BC1092DB020E947B1E70CF8091E30028
:1046D00087FD93E09093DB02B3CF1F920F920FB64A
:1046E0000F9211242F933F934F935F936F937F9378
:1046F0008F939F93AF93BF93CF93DF93EF93FF93EA
:10470000D091E900DF708091EC00C82FC17080FD6E
:10471000C0E81092E9008091F000877F8093F0005C
:1047200078940E94B1231092E9008091F000886093
:104730008093F000CD2BCF70C093E900FF91EF91F3
:10474000DF91CF91BF91AF919F918F917F916F91A9
:104750005F914F913F912F910F900FBE0F901F903F
:1047600018951F93CF93DF93CDB7DEB7AA970FB6F7
:10477000F894DEBF0FBECDBF8CED92E02091F1002A
:10478000FC012193CF01F2E0843E9F07B9F70E941C
:10479000961E8091E80083FF1EC18091DC029091FB
:1047A000DD029A3008F017C1E92FF0E0E753FA4D27
:1047B0000C943325803899F0823809F00CC180912F
:1047C000E0028F70873008F006C18093E900809185
:1047D000EB0085FB882780F91092E90006C08091E4
:1047E000D8029091D902911182609091E800977F50
:1047F0009093E8008093F1001092F1008091E8001E
:104800008E77E5C0882309F4D3C0823009F0E3C075
:104810008091DE028111D6C08091E0028F702FEF6F
:10482000280F263008F0D7C08093E9002091EB00D4
:1048300020FFC8C0933031F48091EB0080628093F8
:10484000EB00C0C09091EB0090619093EB0021E0F1
:1048500030E001C0220F8A95EAF72093EA00109217
:10486000EA008091EB008860EACF8111B4C010911A
:10487000DE021F778091E3008078812B8093E30034
:104880008091E800877F8093E8000E94CE2180918C
:10489000E80080FFFCCF8091E30080688093E30014
:1048A00082E0111183E08093DB0295C08058823052
:1048B00008F091C08091DE029091DF028C3D23E0F0
:1048C0009207A1F583E08A838AE289834FB7F8943F
:1048D000DE01139620E03EE051E2E32FF0E050933A
:1048E0005700E49120FF03C0E295EF703F5FEF7047
:1048F0008E2F90E0EA30C0F0C7968D939D932F5F86
:10490000243159F74FBF8091E800877F8093E800FA
:104910006AE270E0CE0101960E94DD208091E800FD
:104920008B778093E80057C0C096E7CF6091E00294
:104930007091E102AE014F5F5F4F0E94BB1FBC014F
:10494000892B09F448C09091E800977F9093E80084
:1049500089819A810E943B21E1CF8038E1F58091E5
:10496000E800877F8093E8008091D7028093F10070
:1049700045CF811130C09091DE02923060F5809178
:10498000E800877F8093E8009093D7020E94CE21B1
:104990008091D702882311F084E005C08091E30064
:1049A00087FDFACF81E08093DB020E94821E13C054
:1049B0008091DE02813079F481E0933009F080E06B
:1049C0008093D9021092E9008091E800877F80935C
:1049D000E8000E94CE218091E80083FF0AC0809108
:1049E000E800877F8093E8008091EB0080628093ED
:1049F000EB00AA960FB6F894DEBF0FBECDBFDF91D5
:104A0000CF911F9108950895CF938091DB02882361
:104A1000A1F0C091E900CF709091EC00892F8170D6
:104A200090FD80E8C82B1092E9008091E80083FD9A
:104A30000E94B123CF70C093E900CF91089597FBF6
:104A4000072E16F4009407D077FD09D00E94402568
:104A500007FC05D03EF4909581959F4F0895709581
:104A600061957F4F0895EE0FFF1F0590F491E02DA3
:104A70000994692796276927782787277827089533
:104A8000AA1BBB1B51E107C0AA1FBB1FA617B70774
:104A900010F0A61BB70B881F991F5A95A9F7809590
:104AA0009095BC01CD010895F999FECF92BD81BDCD
:104AB000F89A992780B50895A8E1B0E042E050E067
:104AC0000C948825262FF999FECF92BD81BDF89AC6
:104AD000019700B4021639F01FBA20BD0FB6F89442
:104AE000FA9AF99A0FBE08950396272F0E9463251C
:104AF0000E946225252F0E946325242F0C94632594
:104B00000196272F0E9463250C946225DC01CB01BE
:104B1000FC01F999FECF06C0F2BDE1BDF89A3196CD
:104B200000B40D9241505040B8F70895F894FFCF6B
:104B3000150922094909550960096B096E096E09B1
:104B40006E09B709BA09710975097D098A099709BA
:104B50009A099D09AA09FC0FFC0F54105410A610C5
:104B6000C21029102910CD10591168116811C411F3
:104B700029102910CD11421242124B124B124D1224
:104B80004B124B124B124212421252124B124B1248
:104B90005212DA230224EB240224EB243524562477
:064BA000EB24AD24B92452
:104BA6004B022808641E140A321E871DFD1DD21DE5
:104BB600CE1DBC1D01E200E900EA00B500B600B753
:104BC60000CD008301CC008A0192019401210223C9
:104BD6000224022502260227022A02B300B4006F2D
:104BE600007000818283979694956733363534F446
:104BF600F6F7939266F0F531903091E200E900EA1B
:104C060000B500B600B700CD008301CC008A019242
:104C16000194012102230224022502260227022AE8
:104C260002B300B4006F0070008182834022BC2969
:0C4C3600064B056D05F00409052905007A
:00000001FF
